{
  "abi": [
    {
      "type": "constructor",
      "inputs": [
        {
          "name": "initialOwner",
          "type": "address",
          "internalType": "address"
        }
      ],
      "stateMutability": "nonpayable"
    },
    {
      "type": "function",
      "name": "createSimpleContract",
      "inputs": [
        {
          "name": "name",
          "type": "string",
          "internalType": "string"
        },
        {
          "name": "symbol",
          "type": "string",
          "internalType": "string"
        },
        {
          "name": "metadata",
          "type": "string",
          "internalType": "string"
        },
        {
          "name": "_salt",
          "type": "bytes32",
          "internalType": "bytes32"
        }
      ],
      "outputs": [
        {
          "name": "",
          "type": "address",
          "internalType": "address"
        }
      ],
      "stateMutability": "nonpayable"
    },
    {
      "type": "function",
      "name": "deployedContracts",
      "inputs": [
        {
          "name": "",
          "type": "uint256",
          "internalType": "uint256"
        }
      ],
      "outputs": [
        {
          "name": "",
          "type": "address",
          "internalType": "address"
        }
      ],
      "stateMutability": "view"
    },
    {
      "type": "function",
      "name": "getDeployedContracts",
      "inputs": [],
      "outputs": [
        {
          "name": "",
          "type": "address[]",
          "internalType": "address[]"
        }
      ],
      "stateMutability": "view"
    },
    {
      "type": "function",
      "name": "isActive",
      "inputs": [],
      "outputs": [
        {
          "name": "",
          "type": "bool",
          "internalType": "bool"
        }
      ],
      "stateMutability": "view"
    },
    {
      "type": "function",
      "name": "owner",
      "inputs": [],
      "outputs": [
        {
          "name": "",
          "type": "address",
          "internalType": "address"
        }
      ],
      "stateMutability": "view"
    },
    {
      "type": "function",
      "name": "renounceOwnership",
      "inputs": [],
      "outputs": [],
      "stateMutability": "nonpayable"
    },
    {
      "type": "function",
      "name": "transferOwnership",
      "inputs": [
        {
          "name": "newOwner",
          "type": "address",
          "internalType": "address"
        }
      ],
      "outputs": [],
      "stateMutability": "nonpayable"
    },
    {
      "type": "event",
      "name": "ContractCreated",
      "inputs": [
        {
          "name": "contractAddress",
          "type": "address",
          "indexed": false,
          "internalType": "address"
        },
        {
          "name": "owner",
          "type": "address",
          "indexed": false,
          "internalType": "address"
        },
        {
          "name": "salt",
          "type": "bytes32",
          "indexed": false,
          "internalType": "bytes32"
        }
      ],
      "anonymous": false
    },
    {
      "type": "event",
      "name": "FactoryDisabled",
      "inputs": [
        {
          "name": "by",
          "type": "address",
          "indexed": false,
          "internalType": "address"
        }
      ],
      "anonymous": false
    },
    {
      "type": "event",
      "name": "OwnershipTransferred",
      "inputs": [
        {
          "name": "previousOwner",
          "type": "address",
          "indexed": true,
          "internalType": "address"
        },
        {
          "name": "newOwner",
          "type": "address",
          "indexed": true,
          "internalType": "address"
        }
      ],
      "anonymous": false
    },
    {
      "type": "error",
      "name": "DeploymentFailed",
      "inputs": [
        {
          "name": "reason",
          "type": "string",
          "internalType": "string"
        }
      ]
    },
    {
      "type": "error",
      "name": "OwnableInvalidOwner",
      "inputs": [
        {
          "name": "owner",
          "type": "address",
          "internalType": "address"
        }
      ]
    },
    {
      "type": "error",
      "name": "OwnableUnauthorizedAccount",
      "inputs": [
        {
          "name": "account",
          "type": "address",
          "internalType": "address"
        }
      ]
    }
  ],
  "bytecode": {
    "object": "0x60806040526002805460ff1916600117905534801561001d57600080fd5b50604051611e40380380611e4083398101604081905261003c916100cb565b806001600160a01b03811661006b57604051631e4fbdf760e01b81526000600482015260240160405180910390fd5b6100748161007b565b50506100fb565b600080546001600160a01b038381166001600160a01b0319831681178455604051919092169283917f8be0079c531659141344cd1fd0a4f28419497f9722a3daafe3b4186f6b6457e09190a35050565b6000602082840312156100dd57600080fd5b81516001600160a01b03811681146100f457600080fd5b9392505050565b611d368061010a6000396000f3fe608060405234801561001057600080fd5b506004361061007d5760003560e01c80639016ea1c1161005b5780639016ea1c146100d35780639ad1ee10146100e6578063aa9a068f146100f9578063f2fde38b1461010e57600080fd5b806322f3e2d414610082578063715018a6146100a45780638da5cb5b146100ae575b600080fd5b60025461008f9060ff1681565b60405190151581526020015b60405180910390f35b6100ac610121565b005b6000546001600160a01b03165b6040516001600160a01b03909116815260200161009b565b6100bb6100e1366004610573565b610135565b6100bb6100f436600461060f565b61030c565b610101610336565b60405161009b9190610628565b6100ac61011c366004610674565b610398565b6101296103d6565b6101336000610403565b565b600061013f6103d6565b600060405180602001610151906104c1565b6020820181038252601f19601f82011660405250905060008187878760405160200161017f939291906106f4565b60408051601f198184030181529082905261019d9291602001610737565b60405160208183030381529060405290506000848251602084016000f590506001600160a01b03811661023e576040516320631f9160e01b815260206004820152603760248201527f436f6e7472616374206465706c6f796d656e74206661696c65643a206372656160448201527f7465322072657475726e6564206164647265737328302900000000000000000060648201526084015b60405180910390fd5b6001805480820182556000919091527fb10e2d527612073b26eecdfd717e6a320cf44b4afac2b0732d9fcbe2b7fa0cf60180546001600160a01b0319166001600160a01b0383169081179091556040805191825233602083015281018690527ff5d7b0c2d81096a7adc1c6576d770462a68410168e19d590c55b7e4246ee40589060600160405180910390a16103016040518060400160405280601581526020017421b7b73a3930b1ba103232b83637bcb2b21030ba1d60591b81525082610453565b979650505050505050565b6001818154811061031c57600080fd5b6000918252602090912001546001600160a01b0316905081565b6060600180548060200260200160405190810160405280929190818152602001828054801561038e57602002820191906000526020600020905b81546001600160a01b03168152600190910190602001808311610370575b5050505050905090565b6103a06103d6565b6001600160a01b0381166103ca57604051631e4fbdf760e01b815260006004820152602401610235565b6103d381610403565b50565b6000546001600160a01b031633146101335760405163118cdaa760e01b8152336004820152602401610235565b600080546001600160a01b038381166001600160a01b0319831681178455604051919092169283917f8be0079c531659141344cd1fd0a4f28419497f9722a3daafe3b4186f6b6457e09190a35050565b6104988282604051602401610469929190610766565b60408051601f198184030181529190526020810180516001600160e01b031663319af33360e01b17905261049c565b5050565b6103d38160006a636f6e736f6c652e6c6f679050600080835160208501845afa505050565b6115708061079183390190565b634e487b7160e01b600052604160045260246000fd5b600082601f8301126104f557600080fd5b813567ffffffffffffffff81111561050f5761050f6104ce565b604051601f8201601f19908116603f0116810167ffffffffffffffff8111828210171561053e5761053e6104ce565b60405281815283820160200185101561055657600080fd5b816020850160208301376000918101602001919091529392505050565b6000806000806080858703121561058957600080fd5b843567ffffffffffffffff8111156105a057600080fd5b6105ac878288016104e4565b945050602085013567ffffffffffffffff8111156105c957600080fd5b6105d5878288016104e4565b935050604085013567ffffffffffffffff8111156105f257600080fd5b6105fe878288016104e4565b949793965093946060013593505050565b60006020828403121561062157600080fd5b5035919050565b602080825282518282018190526000918401906040840190835b818110156106695783516001600160a01b0316835260209384019390920191600101610642565b509095945050505050565b60006020828403121561068657600080fd5b81356001600160a01b038116811461069d57600080fd5b9392505050565b60005b838110156106bf5781810151838201526020016106a7565b50506000910152565b600081518084526106e08160208601602086016106a4565b601f01601f19169290920160200192915050565b60608152600061070760608301866106c8565b828103602084015261071981866106c8565b9050828103604084015261072d81856106c8565b9695505050505050565b600083516107498184602088016106a4565b83519083019061075d8183602088016106a4565b01949350505050565b60408152600061077960408301856106c8565b905060018060a01b0383166020830152939250505056fe608060405234801561001057600080fd5b5060405161157038038061157083398101604081905261002f916101a6565b338383600361003e83826102c4565b50600461004b82826102c4565b5050506001600160a01b03811661007c57604051631e4fbdf760e01b81526000600482015260240160405180910390fd5b6100858161009b565b50600861009282826102c4565b50505050610382565b600580546001600160a01b038381166001600160a01b0319831681179093556040519116919082907f8be0079c531659141344cd1fd0a4f28419497f9722a3daafe3b4186f6b6457e090600090a35050565b634e487b7160e01b600052604160045260246000fd5b600082601f83011261011457600080fd5b81516001600160401b0381111561012d5761012d6100ed565b604051601f8201601f19908116603f011681016001600160401b038111828210171561015b5761015b6100ed565b60405281815283820160200185101561017357600080fd5b60005b8281101561019257602081860181015183830182015201610176565b506000918101602001919091529392505050565b6000806000606084860312156101bb57600080fd5b83516001600160401b038111156101d157600080fd5b6101dd86828701610103565b602086015190945090506001600160401b038111156101fb57600080fd5b61020786828701610103565b604086015190935090506001600160401b0381111561022557600080fd5b61023186828701610103565b9150509250925092565b600181811c9082168061024f57607f821691505b60208210810361026f57634e487b7160e01b600052602260045260246000fd5b50919050565b601f8211156102bf57806000526020600020601f840160051c8101602085101561029c5750805b601f840160051c820191505b818110156102bc57600081556001016102a8565b50505b505050565b81516001600160401b038111156102dd576102dd6100ed565b6102f1816102eb845461023b565b84610275565b6020601f821160018114610325576000831561030d5750848201515b600019600385901b1c1916600184901b1784556102bc565b600084815260208120601f198516915b828110156103555787850151825560209485019460019092019101610335565b50848210156103735786840151600019600387901b60f8161c191681555b50505050600190811b01905550565b6111df806103916000396000f3fe6080604052600436106101235760003560e01c80638da5cb5b116100a0578063a9059cbb11610064578063a9059cbb14610302578063dd62ed3e14610322578063e4849b3214610368578063eb91d37e14610388578063f2fde38b1461039d57600080fd5b80638da5cb5b1461027d578063918b5be1146102a557806393d5825e146102c557806395d89b41146102e5578063a6f2ae3a146102fa57600080fd5b80631ca8b6cb116100e75780631ca8b6cb146101de57806323b872dd146101f4578063313ce5671461021457806370a0823114610230578063715018a61461026657600080fd5b806303ee438c1461012f57806306fdde031461015a578063095ea7b31461016f57806318160ddd1461019f5780631b3d36de146101be57600080fd5b3661012a57005b600080fd5b34801561013b57600080fd5b506101446103bd565b6040516101519190610de6565b60405180910390f35b34801561016657600080fd5b5061014461044b565b34801561017b57600080fd5b5061018f61018a366004610e50565b6104dd565b6040519015158152602001610151565b3480156101ab57600080fd5b506002545b604051908152602001610151565b3480156101ca57600080fd5b506101b06101d9366004610e7a565b6104f7565b3480156101ea57600080fd5b506101b060095481565b34801561020057600080fd5b5061018f61020f366004610e93565b610556565b34801561022057600080fd5b5060405160008152602001610151565b34801561023c57600080fd5b506101b061024b366004610ed0565b6001600160a01b031660009081526020819052604090205490565b34801561027257600080fd5b5061027b61057a565b005b34801561028957600080fd5b506005546040516001600160a01b039091168152602001610151565b3480156102b157600080fd5b5061027b6102c0366004610f01565b61058e565b3480156102d157600080fd5b506101b06102e0366004610e7a565b6105dd565b3480156102f157600080fd5b50610144610622565b61027b610631565b34801561030e57600080fd5b5061018f61031d366004610e50565b6107cb565b34801561032e57600080fd5b506101b061033d366004610fba565b6001600160a01b03918216600090815260016020908152604080832093909416825291909152205490565b34801561037457600080fd5b5061027b610383366004610e7a565b6107d9565b34801561039457600080fd5b506101b061095d565b3480156103a957600080fd5b5061027b6103b8366004610ed0565b610973565b600880546103ca90610fed565b80601f01602080910402602001604051908101604052809291908181526020018280546103f690610fed565b80156104435780601f1061041857610100808354040283529160200191610443565b820191906000526020600020905b81548152906001019060200180831161042657829003601f168201915b505050505081565b60606003805461045a90610fed565b80601f016020809104026020016040519081016040528092919081815260200182805461048690610fed565b80156104d35780601f106104a8576101008083540402835291602001916104d3565b820191906000526020600020905b8154815290600101906020018083116104b657829003601f168201915b5050505050905090565b6000336104eb8185856109b1565b60019150505b92915050565b60008061050261095d565b9050600061051184600261103d565b61051b838061103d565b6105259190611054565b90506000610532826109c3565b9050600060016105428584611067565b61054c919061107a565b9695505050505050565b600033610564858285610a1a565b61056f858585610a99565b506001949350505050565b610582610af8565b61058c6000610b25565b565b610596610af8565b60086105a282826110ea565b507f1c306e70c05992619e2128ad1ef88df75f36c9476282e59f51401b2abaa42e4e816040516105d29190610de6565b60405180910390a150565b600954600090816002846105f1848361103d565b6105fb9190611067565b610606906001611054565b610610908661103d565b61061a919061107a565b949350505050565b60606004805461045a90610fed565b600061063c346104f7565b9050600081116106895760405162461bcd60e51b8152602060048201526013602482015272105b5bdd5b9d081a5cc81d1bdbc81cdb585b1b606a1b60448201526064015b60405180910390fd5b6000600954826106999190611054565b905060006002836001600954856106b09190611054565b6106ba9190611067565b6106c4919061103d565b6106ce919061107a565b90506106da3384610b77565b82600960008282546106ec9190611054565b90915550503481101561078a576000336107068334611067565b604051600081818185875af1925050503d8060008114610742576040519150601f19603f3d011682016040523d82523d6000602084013e610747565b606091505b50509050806107885760405162461bcd60e51b815260206004820152600d60248201526c1499599d5b990819985a5b1959609a1b6044820152606401610680565b505b604080513481526020810185905233917f1cbc5ab135991bd2b6a4b034a04aa2aa086dac1371cb9b16b8b5e2ed6b036bed91015b60405180910390a2505050565b6000336104eb818585610a99565b6000811161081c5760405162461bcd60e51b815260206004820152601060248201526f105b5bdd5b9d081d1bdbc81cdb585b1b60821b6044820152606401610680565b6000610827826105dd565b9050804710156108795760405162461bcd60e51b815260206004820152601e60248201527f4e6f7420656e6f7567682062616c616e636520696e20636f6e747261637400006044820152606401610680565b816009600082825461088b9190611067565b9091555061089b90503383610bb1565b604051600090339083908381818185875af1925050503d80600081146108dd576040519150601f19603f3d011682016040523d82523d6000602084013e6108e2565b606091505b50509050806109255760405162461bcd60e51b815260206004820152600f60248201526e151c985b9cd9995c8819985a5b1959608a1b6044820152606401610680565b604080518481526020810184905233917fed7a144fad14804d5c249145e3e0e2b63a9eb455b76aee5bc92d711e9bba3e4a91016107be565b6000600160095461096e9190611054565b905090565b61097b610af8565b6001600160a01b0381166109a557604051631e4fbdf760e01b815260006004820152602401610680565b6109ae81610b25565b50565b6109be8383836001610be7565b505050565b60008060026109d3846001611054565b6109dd919061107a565b9050825b80821015610a135750806002816109f8818761107a565b610a029190611054565b610a0c919061107a565b91506109e1565b9392505050565b6001600160a01b03838116600090815260016020908152604080832093861683529290522054600019811015610a935781811015610a8457604051637dc7a0d960e11b81526001600160a01b03841660048201526024810182905260448101839052606401610680565b610a9384848484036000610be7565b50505050565b6001600160a01b038316610ac357604051634b637e8f60e11b815260006004820152602401610680565b6001600160a01b038216610aed5760405163ec442f0560e01b815260006004820152602401610680565b6109be838383610cbc565b6005546001600160a01b0316331461058c5760405163118cdaa760e01b8152336004820152602401610680565b600580546001600160a01b038381166001600160a01b0319831681179093556040519116919082907f8be0079c531659141344cd1fd0a4f28419497f9722a3daafe3b4186f6b6457e090600090a35050565b6001600160a01b038216610ba15760405163ec442f0560e01b815260006004820152602401610680565b610bad60008383610cbc565b5050565b6001600160a01b038216610bdb57604051634b637e8f60e11b815260006004820152602401610680565b610bad82600083610cbc565b6001600160a01b038416610c115760405163e602df0560e01b815260006004820152602401610680565b6001600160a01b038316610c3b57604051634a1406b160e11b815260006004820152602401610680565b6001600160a01b0380851660009081526001602090815260408083209387168352929052208290558015610a9357826001600160a01b0316846001600160a01b03167f8c5be1e5ebec7d5bd14f71427d1e84f3dd0314c0f7b2291e5b200ac8c7c3b92584604051610cae91815260200190565b60405180910390a350505050565b6001600160a01b038316610ce7578060026000828254610cdc9190611054565b90915550610d599050565b6001600160a01b03831660009081526020819052604090205481811015610d3a5760405163391434e360e21b81526001600160a01b03851660048201526024810182905260448101839052606401610680565b6001600160a01b03841660009081526020819052604090209082900390555b6001600160a01b038216610d7557600280548290039055610d94565b6001600160a01b03821660009081526020819052604090208054820190555b816001600160a01b0316836001600160a01b03167fddf252ad1be2c89b69c2b068fc378daa952ba7f163c4a11628f55a4df523b3ef83604051610dd991815260200190565b60405180910390a3505050565b602081526000825180602084015260005b81811015610e145760208186018101516040868401015201610df7565b506000604082850101526040601f19601f83011684010191505092915050565b80356001600160a01b0381168114610e4b57600080fd5b919050565b60008060408385031215610e6357600080fd5b610e6c83610e34565b946020939093013593505050565b600060208284031215610e8c57600080fd5b5035919050565b600080600060608486031215610ea857600080fd5b610eb184610e34565b9250610ebf60208501610e34565b929592945050506040919091013590565b600060208284031215610ee257600080fd5b610a1382610e34565b634e487b7160e01b600052604160045260246000fd5b600060208284031215610f1357600080fd5b813567ffffffffffffffff811115610f2a57600080fd5b8201601f81018413610f3b57600080fd5b803567ffffffffffffffff811115610f5557610f55610eeb565b604051601f8201601f19908116603f0116810167ffffffffffffffff81118282101715610f8457610f84610eeb565b604052818152828201602001861015610f9c57600080fd5b81602084016020830137600091810160200191909152949350505050565b60008060408385031215610fcd57600080fd5b610fd683610e34565b9150610fe460208401610e34565b90509250929050565b600181811c9082168061100157607f821691505b60208210810361102157634e487b7160e01b600052602260045260246000fd5b50919050565b634e487b7160e01b600052601160045260246000fd5b80820281158282048414176104f1576104f1611027565b808201808211156104f1576104f1611027565b818103818111156104f1576104f1611027565b60008261109757634e487b7160e01b600052601260045260246000fd5b500490565b601f8211156109be57806000526020600020601f840160051c810160208510156110c35750805b601f840160051c820191505b818110156110e357600081556001016110cf565b5050505050565b815167ffffffffffffffff81111561110457611104610eeb565b611118816111128454610fed565b8461109c565b6020601f82116001811461114c57600083156111345750848201515b600019600385901b1c1916600184901b1784556110e3565b600084815260208120601f198516915b8281101561117c578785015182556020948501946001909201910161115c565b508482101561119a5786840151600019600387901b60f8161c191681555b50505050600190811b0190555056fea264697066735822122089339bab32dfec9a87c2a0d007dc6e2cc54d7fb5d4aa985eca45e6ea5ad2964a64736f6c634300081c0033a2646970667358221220ee909c57f4ef3f388054a4e9e8177b99a2cfc2e0082f52d445bba34fa49e8ec264736f6c634300081c0033",
    "linkReferences": {}
  },
  "methodIdentifiers": {
    "createSimpleContract(string,string,string,bytes32)": "9016ea1c",
    "deployedContracts(uint256)": "9ad1ee10",
    "getDeployedContracts()": "aa9a068f",
    "isActive()": "22f3e2d4",
    "owner()": "8da5cb5b",
    "renounceOwnership()": "715018a6",
    "transferOwnership(address)": "f2fde38b"
  },
  "id": 0
}