{"abi":[{"type":"constructor","inputs":[{"name":"initialOwner","type":"address","internalType":"address"}],"stateMutability":"nonpayable"},{"type":"function","name":"createMemeContract","inputs":[{"name":"name","type":"string","internalType":"string"},{"name":"symbol","type":"string","internalType":"string"},{"name":"metadata","type":"string","internalType":"string"},{"name":"initialPrice","type":"uint256","internalType":"uint256"},{"name":"owner","type":"address","internalType":"address"},{"name":"_salt","type":"bytes32","internalType":"bytes32"}],"outputs":[{"name":"","type":"address","internalType":"address"}],"stateMutability":"nonpayable"},{"type":"function","name":"deployedContracts","inputs":[{"name":"","type":"uint256","internalType":"uint256"}],"outputs":[{"name":"","type":"address","internalType":"address"}],"stateMutability":"view"},{"type":"function","name":"getDeployedContracts","inputs":[],"outputs":[{"name":"","type":"address[]","internalType":"address[]"}],"stateMutability":"view"},{"type":"function","name":"isActive","inputs":[],"outputs":[{"name":"","type":"bool","internalType":"bool"}],"stateMutability":"view"},{"type":"function","name":"owner","inputs":[],"outputs":[{"name":"","type":"address","internalType":"address"}],"stateMutability":"view"},{"type":"function","name":"renounceOwnership","inputs":[],"outputs":[],"stateMutability":"nonpayable"},{"type":"function","name":"transferOwnership","inputs":[{"name":"newOwner","type":"address","internalType":"address"}],"outputs":[],"stateMutability":"nonpayable"},{"type":"event","name":"ContractCreated","inputs":[{"name":"contractAddress","type":"address","indexed":false,"internalType":"address"},{"name":"owner","type":"address","indexed":false,"internalType":"address"},{"name":"salt","type":"bytes32","indexed":false,"internalType":"bytes32"}],"anonymous":false},{"type":"event","name":"FactoryDisabled","inputs":[{"name":"by","type":"address","indexed":false,"internalType":"address"}],"anonymous":false},{"type":"event","name":"OwnershipTransferred","inputs":[{"name":"previousOwner","type":"address","indexed":true,"internalType":"address"},{"name":"newOwner","type":"address","indexed":true,"internalType":"address"}],"anonymous":false},{"type":"error","name":"DeploymentFailed","inputs":[{"name":"reason","type":"string","internalType":"string"}]},{"type":"error","name":"OwnableInvalidOwner","inputs":[{"name":"owner","type":"address","internalType":"address"}]},{"type":"error","name":"OwnableUnauthorizedAccount","inputs":[{"name":"account","type":"address","internalType":"address"}]}],"bytecode":{"object":"0x60806040526002805460ff1916600117905534801561001c575f5ffd5b506040516122df3803806122df83398101604081905261003b916100c8565b806001600160a01b03811661006957604051631e4fbdf760e01b81525f600482015260240160405180910390fd5b61007281610079565b50506100f5565b5f80546001600160a01b038381166001600160a01b0319831681178455604051919092169283917f8be0079c531659141344cd1fd0a4f28419497f9722a3daafe3b4186f6b6457e09190a35050565b5f602082840312156100d8575f5ffd5b81516001600160a01b03811681146100ee575f5ffd5b9392505050565b6121dd806101025f395ff3fe608060405234801561000f575f5ffd5b506004361061007a575f3560e01c80638da5cb5b116100585780638da5cb5b146100d55780639ad1ee10146100e5578063aa9a068f146100f8578063f2fde38b1461010d575f5ffd5b80631db82a9d1461007e57806322f3e2d4146100ae578063715018a6146100cb575b5f5ffd5b61009161008c366004610575565b610120565b6040516001600160a01b0390911681526020015b60405180910390f35b6002546100bb9060ff1681565b60405190151581526020016100a5565b6100d36102ef565b005b5f546001600160a01b0316610091565b6100916100f3366004610625565b610302565b61010061032a565b6040516100a5919061063c565b6100d361011b366004610687565b61038a565b5f5f60405180602001610132906104ae565b6020820181038252601f19601f8201166040525090505f8189898989896040516020016101639594939291906106d5565b60408051601f19818403018152908290526101819291602001610747565b60405160208183030381529060405290505f848251602084015ff590506001600160a01b038116610220576040516320631f9160e01b815260206004820152603760248201527f436f6e7472616374206465706c6f796d656e74206661696c65643a206372656160448201527f7465322072657475726e6564206164647265737328302900000000000000000060648201526084015b60405180910390fd5b6001805480820182555f919091527fb10e2d527612073b26eecdfd717e6a320cf44b4afac2b0732d9fcbe2b7fa0cf60180546001600160a01b0319166001600160a01b0383169081179091556040805191825233602083015281018690527ff5d7b0c2d81096a7adc1c6576d770462a68410168e19d590c55b7e4246ee40589060600160405180910390a16102e26040518060400160405280601581526020017421b7b73a3930b1ba103232b83637bcb2b21030ba1d60591b815250826103c7565b9998505050505050505050565b6102f7610410565b6103005f61043c565b565b60018181548110610311575f80fd5b5f918252602090912001546001600160a01b0316905081565b6060600180548060200260200160405190810160405280929190818152602001828054801561038057602002820191905f5260205f20905b81546001600160a01b03168152600190910190602001808311610362575b5050505050905090565b610392610410565b6001600160a01b0381166103bb57604051631e4fbdf760e01b81525f6004820152602401610217565b6103c48161043c565b50565b61040c82826040516024016103dd929190610763565b60408051601f198184030181529190526020810180516001600160e01b031663319af33360e01b17905261048b565b5050565b5f546001600160a01b031633146103005760405163118cdaa760e01b8152336004820152602401610217565b5f80546001600160a01b038381166001600160a01b0319831681178455604051919092169283917f8be0079c531659141344cd1fd0a4f28419497f9722a3daafe3b4186f6b6457e09190a35050565b6103c4815f6a636f6e736f6c652e6c6f6790505f5f835160208501845afa505050565b611a1b8061078d83390190565b634e487b7160e01b5f52604160045260245ffd5b5f82601f8301126104de575f5ffd5b813567ffffffffffffffff8111156104f8576104f86104bb565b604051601f8201601f19908116603f0116810167ffffffffffffffff81118282101715610527576105276104bb565b60405281815283820160200185101561053e575f5ffd5b816020850160208301375f918101602001919091529392505050565b80356001600160a01b0381168114610570575f5ffd5b919050565b5f5f5f5f5f5f60c0878903121561058a575f5ffd5b863567ffffffffffffffff8111156105a0575f5ffd5b6105ac89828a016104cf565b965050602087013567ffffffffffffffff8111156105c8575f5ffd5b6105d489828a016104cf565b955050604087013567ffffffffffffffff8111156105f0575f5ffd5b6105fc89828a016104cf565b945050606087013592506106126080880161055a565b915060a087013590509295509295509295565b5f60208284031215610635575f5ffd5b5035919050565b602080825282518282018190525f918401906040840190835b8181101561067c5783516001600160a01b0316835260209384019390920191600101610655565b509095945050505050565b5f60208284031215610697575f5ffd5b6106a08261055a565b9392505050565b5f81518084528060208401602086015e5f602082860101526020601f19601f83011685010191505092915050565b60a081525f6106e760a08301886106a7565b82810360208401526106f981886106a7565b9050828103604084015261070d81876106a7565b606084019590955250506001600160a01b03919091166080909101529392505050565b5f81518060208401855e5f93019283525090919050565b5f61075b6107558386610730565b84610730565b949350505050565b604081525f61077560408301856106a7565b905060018060a01b0383166020830152939250505056fe608060405260016009556002600a55348015610019575f5ffd5b50604051611a1b380380611a1b833981016040819052610038916101b8565b808585600361004783826102f6565b50600461005482826102f6565b5050506001600160a01b03811661008457604051631e4fbdf760e01b81525f600482015260240160405180910390fd5b61008d816100ca565b506009829055600861009f84826102f6565b50600b80546001600160a01b0319166001600160a01b0392909216919091179055506103b092505050565b600580546001600160a01b038381166001600160a01b0319831681179093556040519116919082907f8be0079c531659141344cd1fd0a4f28419497f9722a3daafe3b4186f6b6457e0905f90a35050565b634e487b7160e01b5f52604160045260245ffd5b5f82601f83011261013e575f5ffd5b81516001600160401b038111156101575761015761011b565b604051601f8201601f19908116603f011681016001600160401b03811182821017156101855761018561011b565b60405281815283820160200185101561019c575f5ffd5b8160208501602083015e5f918101602001919091529392505050565b5f5f5f5f5f60a086880312156101cc575f5ffd5b85516001600160401b038111156101e1575f5ffd5b6101ed8882890161012f565b602088015190965090506001600160401b0381111561020a575f5ffd5b6102168882890161012f565b604088015190955090506001600160401b03811115610233575f5ffd5b61023f8882890161012f565b60608801516080890151919550935090506001600160a01b0381168114610264575f5ffd5b809150509295509295909350565b600181811c9082168061028657607f821691505b6020821081036102a457634e487b7160e01b5f52602260045260245ffd5b50919050565b601f8211156102f157805f5260205f20601f840160051c810160208510156102cf5750805b601f840160051c820191505b818110156102ee575f81556001016102db565b50505b505050565b81516001600160401b0381111561030f5761030f61011b565b6103238161031d8454610272565b846102aa565b6020601f821160018114610355575f831561033e5750848201515b5f19600385901b1c1916600184901b1784556102ee565b5f84815260208120601f198516915b828110156103845787850151825560209485019460019092019101610364565b50848210156103a157868401515f19600387901b60f8161c191681555b50505050600190811b01905550565b61165e806103bd5f395ff3fe60806040526004361061017e575f3560e01c80638da5cb5b116100cd578063a6f2ae3a11610087578063e4849b3211610062578063e4849b321461047d578063e74b981b1461049c578063eb91d37e146104bb578063f2fde38b146104cf575f5ffd5b8063a6f2ae3a14610412578063a9059cbb1461041a578063dd62ed3e14610439575f5ffd5b80638da5cb5b1461036f578063918b5be11461038c57806393d5825e146103ab57806395d89b41146103ca5780639ace38c2146103de578063a001ecdd146103fd575f5ffd5b806325640850116101385780636f9fb98a116101135780636f9fb98a146102f457806370a0823114610306578063715018a61461033a57806383920e901461034e575f5ffd5b80632564085014610252578063313ce567146102a257806346904840146102bd575f5ffd5b806303ee438c1461018957806306fdde03146101b3578063095ea7b3146101c757806318160ddd146101f65780631b3d36de1461021457806323b872dd14610233575f5ffd5b3661018557005b5f5ffd5b348015610194575f5ffd5b5061019d6104ee565b6040516101aa9190611260565b60405180910390f35b3480156101be575f5ffd5b5061019d61057a565b3480156101d2575f5ffd5b506101e66101e136600461128d565b61060a565b60405190151581526020016101aa565b348015610201575f5ffd5b506002545b6040519081526020016101aa565b34801561021f575f5ffd5b5061020661022e3660046112b5565b610623565b34801561023e575f5ffd5b506101e661024d3660046112cc565b61077a565b34801561025d575f5ffd5b506102a061026c3660046112b5565b600c80546001810182555f919091527fdf6966c971051c3d54ec59162606531493a51404a002842f56009d7e5cf4a8c70155565b005b3480156102ad575f5ffd5b50604051600581526020016101aa565b3480156102c8575f5ffd5b50600b546102dc906001600160a01b031681565b6040516001600160a01b0390911681526020016101aa565b3480156102ff575f5ffd5b5047610206565b348015610311575f5ffd5b50610206610320366004611306565b6001600160a01b03165f9081526020819052604090205490565b348015610345575f5ffd5b506102a061079d565b348015610359575f5ffd5b506103626107b0565b6040516101aa919061131f565b34801561037a575f5ffd5b506005546001600160a01b03166102dc565b348015610397575f5ffd5b506102a06103a6366004611375565b610805565b3480156103b6575f5ffd5b506102066103c53660046112b5565b610854565b3480156103d5575f5ffd5b5061019d6108a0565b3480156103e9575f5ffd5b506102066103f83660046112b5565b6108af565b348015610408575f5ffd5b50610206600a5481565b6102a06108ce565b348015610425575f5ffd5b506101e661043436600461128d565b610a9c565b348015610444575f5ffd5b50610206610453366004611428565b6001600160a01b039182165f90815260016020908152604080832093909416825291909152205490565b348015610488575f5ffd5b506102a06104973660046112b5565b610aa9565b3480156104a7575f5ffd5b506102a06104b6366004611306565b610cda565b3480156104c6575f5ffd5b50610206610d4e565b3480156104da575f5ffd5b506102a06104e9366004611306565b610d6a565b600880546104fb90611459565b80601f016020809104026020016040519081016040528092919081815260200182805461052790611459565b80156105725780601f1061054957610100808354040283529160200191610572565b820191905f5260205f20905b81548152906001019060200180831161055557829003601f168201915b505050505081565b60606003805461058990611459565b80601f01602080910402602001604051908101604052809291908181526020018280546105b590611459565b80156106005780601f106105d757610100808354040283529160200191610600565b820191905f5260205f20905b8154815290600101906020018083116105e357829003601f168201915b5050505050905090565b5f33610617818585610da7565b60019150505b92915050565b5f5f82116106785760405162461bcd60e51b815260206004820152601d60248201527f416d6f756e74206d7573742062652067726561746572207468616e203000000060448201526064015b60405180910390fd5b5f610681610d4e565b90505f61068f8460026114a5565b61069983806114a5565b6106a391906114bc565b90506106af82806114a5565b8110156106ef5760405162461bcd60e51b815260206004820152600e60248201526d125b9d985b1a5908185b5bdd5b9d60921b604482015260640161066f565b5f6106f982610db9565b90505f600161070885846114cf565b61071291906114e2565b90505f81116107715760405162461bcd60e51b815260206004820152602560248201527f416d6f756e7420697320746f6f20736d616c6c20746f206d696e7420616e79206044820152643a37b5b2b760d91b606482015260840161066f565b95945050505050565b5f33610787858285610e0f565b610792858585610e8b565b506001949350505050565b6107a5610ee8565b6107ae5f610f15565b565b6060600c80548060200260200160405190810160405280929190818152602001828054801561060057602002820191905f5260205f20905b8154815260200190600101908083116107e8575050505050905090565b61080d610ee8565b6008610819828261154c565b507f1c306e70c05992619e2128ad1ef88df75f36c9476282e59f51401b2abaa42e4e816040516108499190611260565b60405180910390a150565b5f5f61085e610d4e565b90505f600260018561087085846114a5565b61087a91906114cf565b61088491906114cf565b61088e90866114a5565b61089891906114e2565b949350505050565b60606004805461058990611459565b600c81815481106108be575f80fd5b5f91825260209091200154905081565b5f6108d834610623565b90505f811161091f5760405162461bcd60e51b8152602060048201526013602482015272105b5bdd5b9d081a5cc81d1bdbc81cdb585b1b606a1b604482015260640161066f565b5f610928610d4e565b90505f61093582846114bc565b90505f600284600161094786866114bc565b61095191906114cf565b61095b91906114a5565b61096591906114e2565b905061098f60405180604001604052806006815260200165283934b1b29d60d11b81525082610f66565b6109bc6040518060400160405280600b81526020016a03a37b5b2b710313abc9d160ad1b81525085610f66565b6109c63385610faf565b80341115610a5b575f336109da83346114cf565b6040515f81818185875af1925050503d805f8114610a13576040519150601f19603f3d011682016040523d82523d5f602084013e610a18565b606091505b5050905080610a595760405162461bcd60e51b815260206004820152600d60248201526c1499599d5b990819985a5b1959609a1b604482015260640161066f565b505b604080513481526020810186905233917f1cbc5ab135991bd2b6a4b034a04aa2aa086dac1371cb9b16b8b5e2ed6b036bed910160405180910390a250505050565b5f33610617818585610e8b565b5f8111610aeb5760405162461bcd60e51b815260206004820152601060248201526f105b5bdd5b9d081d1bdbc81cdb585b1b60821b604482015260640161066f565b6002548110610b305760405162461bcd60e51b8152602060048201526011602482015270416d6f756e7420697320746f6f2062696760781b604482015260640161066f565b5f610b3a82610854565b90505f6064600a5483610b4d91906114a5565b610b5791906114e2565b90505f610b6482846114cf565b9050610b8e604051806040016040528060068152602001652b30b63ab29d60d11b81525084610f66565b610bb760405180604001604052806007815260200166213630b731b29d60c91b81525047610f66565b80471015610c075760405162461bcd60e51b815260206004820152601e60248201527f4e6f7420656e6f7567682062616c616e636520696e20636f6e74726163740000604482015260640161066f565b610c113385610fe3565b6040515f90339083908381818185875af1925050503d805f8114610c50576040519150601f19603f3d011682016040523d82523d5f602084013e610c55565b606091505b5050905080610c985760405162461bcd60e51b815260206004820152600f60248201526e151c985b9cd9995c8819985a5b1959608a1b604482015260640161066f565b604080518681526020810184905233917fed7a144fad14804d5c249145e3e0e2b63a9eb455b76aee5bc92d711e9bba3e4a910160405180910390a25050505050565b610ce2610ee8565b6001600160a01b038116610d2c5760405162461bcd60e51b8152602060048201526011602482015270125b9d985b1a59081c9958da5c1a595b9d607a1b604482015260640161066f565b600b80546001600160a01b0319166001600160a01b0392909216919091179055565b5f600954610d5b60025490565b610d6591906114bc565b905090565b610d72610ee8565b6001600160a01b038116610d9b57604051631e4fbdf760e01b81525f600482015260240161066f565b610da481610f15565b50565b610db48383836001611017565b505050565b5f806002610dc88460016114bc565b610dd291906114e2565b9050825b80821015610e08575080600281610ded81876114e2565b610df791906114bc565b610e0191906114e2565b9150610dd6565b9392505050565b6001600160a01b038381165f908152600160209081526040808320938616835292905220545f19811015610e855781811015610e7757604051637dc7a0d960e11b81526001600160a01b0384166004820152602481018290526044810183905260640161066f565b610e8584848484035f611017565b50505050565b6001600160a01b038316610eb457604051634b637e8f60e11b81525f600482015260240161066f565b6001600160a01b038216610edd5760405163ec442f0560e01b81525f600482015260240161066f565b610db48383836110e9565b6005546001600160a01b031633146107ae5760405163118cdaa760e01b815233600482015260240161066f565b600580546001600160a01b038381166001600160a01b0319831681179093556040519116919082907f8be0079c531659141344cd1fd0a4f28419497f9722a3daafe3b4186f6b6457e0905f90a35050565b610fab8282604051602401610f7c929190611607565b60408051601f198184030181529190526020810180516001600160e01b0316632d839cb360e21b17905261120f565b5050565b6001600160a01b038216610fd85760405163ec442f0560e01b81525f600482015260240161066f565b610fab5f83836110e9565b6001600160a01b03821661100c57604051634b637e8f60e11b81525f600482015260240161066f565b610fab825f836110e9565b6001600160a01b0384166110405760405163e602df0560e01b81525f600482015260240161066f565b6001600160a01b03831661106957604051634a1406b160e11b81525f600482015260240161066f565b6001600160a01b038085165f9081526001602090815260408083209387168352929052208290558015610e8557826001600160a01b0316846001600160a01b03167f8c5be1e5ebec7d5bd14f71427d1e84f3dd0314c0f7b2291e5b200ac8c7c3b925846040516110db91815260200190565b60405180910390a350505050565b6001600160a01b038316611113578060025f82825461110891906114bc565b909155506111839050565b6001600160a01b0383165f90815260208190526040902054818110156111655760405163391434e360e21b81526001600160a01b0385166004820152602481018290526044810183905260640161066f565b6001600160a01b0384165f9081526020819052604090209082900390555b6001600160a01b03821661119f576002805482900390556111bd565b6001600160a01b0382165f9081526020819052604090208054820190555b816001600160a01b0316836001600160a01b03167fddf252ad1be2c89b69c2b068fc378daa952ba7f163c4a11628f55a4df523b3ef8360405161120291815260200190565b60405180910390a3505050565b610da4815f6a636f6e736f6c652e6c6f6790505f5f835160208501845afa505050565b5f81518084528060208401602086015e5f602082860101526020601f19601f83011685010191505092915050565b602081525f610e086020830184611232565b80356001600160a01b0381168114611288575f5ffd5b919050565b5f5f6040838503121561129e575f5ffd5b6112a783611272565b946020939093013593505050565b5f602082840312156112c5575f5ffd5b5035919050565b5f5f5f606084860312156112de575f5ffd5b6112e784611272565b92506112f560208501611272565b929592945050506040919091013590565b5f60208284031215611316575f5ffd5b610e0882611272565b602080825282518282018190525f918401906040840190835b81811015611356578351835260209384019390920191600101611338565b509095945050505050565b634e487b7160e01b5f52604160045260245ffd5b5f60208284031215611385575f5ffd5b813567ffffffffffffffff81111561139b575f5ffd5b8201601f810184136113ab575f5ffd5b803567ffffffffffffffff8111156113c5576113c5611361565b604051601f8201601f19908116603f0116810167ffffffffffffffff811182821017156113f4576113f4611361565b60405281815282820160200186101561140b575f5ffd5b816020840160208301375f91810160200191909152949350505050565b5f5f60408385031215611439575f5ffd5b61144283611272565b915061145060208401611272565b90509250929050565b600181811c9082168061146d57607f821691505b60208210810361148b57634e487b7160e01b5f52602260045260245ffd5b50919050565b634e487b7160e01b5f52601160045260245ffd5b808202811582820484141761061d5761061d611491565b8082018082111561061d5761061d611491565b8181038181111561061d5761061d611491565b5f826114fc57634e487b7160e01b5f52601260045260245ffd5b500490565b601f821115610db457805f5260205f20601f840160051c810160208510156115265750805b601f840160051c820191505b81811015611545575f8155600101611532565b5050505050565b815167ffffffffffffffff81111561156657611566611361565b61157a816115748454611459565b84611501565b6020601f8211600181146115ac575f83156115955750848201515b5f19600385901b1c1916600184901b178455611545565b5f84815260208120601f198516915b828110156115db57878501518255602094850194600190920191016115bb565b50848210156115f857868401515f19600387901b60f8161c191681555b50505050600190811b01905550565b604081525f6116196040830185611232565b9050826020830152939250505056fea2646970667358221220728015489d7997ddeca29c2fff297854479b60b8e229acf14c324ab3111f5cc364736f6c634300081c0033a2646970667358221220d68486cad3d5b7bd0985bb124d9437c00adb2f2423d632b28f6bae6d7cb7949264736f6c634300081c0033","linkReferences":{}},"methodIdentifiers":{"createMemeContract(string,string,string,uint256,address,bytes32)":"1db82a9d","deployedContracts(uint256)":"9ad1ee10","getDeployedContracts()":"aa9a068f","isActive()":"22f3e2d4","owner()":"8da5cb5b","renounceOwnership()":"715018a6","transferOwnership(address)":"f2fde38b"},"id":0}