{
  "abi": [
    {
      "type": "constructor",
      "inputs": [
        {
          "name": "name_",
          "type": "string",
          "internalType": "string"
        },
        {
          "name": "symbol_",
          "type": "string",
          "internalType": "string"
        },
        {
          "name": "metadataURI_",
          "type": "string",
          "internalType": "string"
        }
      ],
      "stateMutability": "nonpayable"
    },
    {
      "type": "receive",
      "stateMutability": "payable"
    },
    {
      "type": "function",
      "name": "allowance",
      "inputs": [
        {
          "name": "owner",
          "type": "address",
          "internalType": "address"
        },
        {
          "name": "spender",
          "type": "address",
          "internalType": "address"
        }
      ],
      "outputs": [
        {
          "name": "",
          "type": "uint256",
          "internalType": "uint256"
        }
      ],
      "stateMutability": "view"
    },
    {
      "type": "function",
      "name": "approve",
      "inputs": [
        {
          "name": "spender",
          "type": "address",
          "internalType": "address"
        },
        {
          "name": "value",
          "type": "uint256",
          "internalType": "uint256"
        }
      ],
      "outputs": [
        {
          "name": "",
          "type": "bool",
          "internalType": "bool"
        }
      ],
      "stateMutability": "nonpayable"
    },
    {
      "type": "function",
      "name": "balanceOf",
      "inputs": [
        {
          "name": "account",
          "type": "address",
          "internalType": "address"
        }
      ],
      "outputs": [
        {
          "name": "",
          "type": "uint256",
          "internalType": "uint256"
        }
      ],
      "stateMutability": "view"
    },
    {
      "type": "function",
      "name": "buy",
      "inputs": [],
      "outputs": [],
      "stateMutability": "payable"
    },
    {
      "type": "function",
      "name": "calculateToken",
      "inputs": [
        {
          "name": "amount",
          "type": "uint256",
          "internalType": "uint256"
        }
      ],
      "outputs": [
        {
          "name": "",
          "type": "uint256",
          "internalType": "uint256"
        }
      ],
      "stateMutability": "view"
    },
    {
      "type": "function",
      "name": "calculateTokenSell",
      "inputs": [
        {
          "name": "amount",
          "type": "uint256",
          "internalType": "uint256"
        }
      ],
      "outputs": [
        {
          "name": "",
          "type": "uint256",
          "internalType": "uint256"
        }
      ],
      "stateMutability": "view"
    },
    {
      "type": "function",
      "name": "decimals",
      "inputs": [],
      "outputs": [
        {
          "name": "",
          "type": "uint8",
          "internalType": "uint8"
        }
      ],
      "stateMutability": "pure"
    },
    {
      "type": "function",
      "name": "getCurrentPrice",
      "inputs": [],
      "outputs": [
        {
          "name": "",
          "type": "uint256",
          "internalType": "uint256"
        }
      ],
      "stateMutability": "view"
    },
    {
      "type": "function",
      "name": "metadataURI",
      "inputs": [],
      "outputs": [
        {
          "name": "",
          "type": "string",
          "internalType": "string"
        }
      ],
      "stateMutability": "view"
    },
    {
      "type": "function",
      "name": "name",
      "inputs": [],
      "outputs": [
        {
          "name": "",
          "type": "string",
          "internalType": "string"
        }
      ],
      "stateMutability": "view"
    },
    {
      "type": "function",
      "name": "owner",
      "inputs": [],
      "outputs": [
        {
          "name": "",
          "type": "address",
          "internalType": "address"
        }
      ],
      "stateMutability": "view"
    },
    {
      "type": "function",
      "name": "renounceOwnership",
      "inputs": [],
      "outputs": [],
      "stateMutability": "nonpayable"
    },
    {
      "type": "function",
      "name": "sell",
      "inputs": [
        {
          "name": "amount",
          "type": "uint256",
          "internalType": "uint256"
        }
      ],
      "outputs": [],
      "stateMutability": "nonpayable"
    },
    {
      "type": "function",
      "name": "symbol",
      "inputs": [],
      "outputs": [
        {
          "name": "",
          "type": "string",
          "internalType": "string"
        }
      ],
      "stateMutability": "view"
    },
    {
      "type": "function",
      "name": "totalSupply",
      "inputs": [],
      "outputs": [
        {
          "name": "",
          "type": "uint256",
          "internalType": "uint256"
        }
      ],
      "stateMutability": "view"
    },
    {
      "type": "function",
      "name": "totalTokenSupply",
      "inputs": [],
      "outputs": [
        {
          "name": "",
          "type": "uint256",
          "internalType": "uint256"
        }
      ],
      "stateMutability": "view"
    },
    {
      "type": "function",
      "name": "transfer",
      "inputs": [
        {
          "name": "to",
          "type": "address",
          "internalType": "address"
        },
        {
          "name": "value",
          "type": "uint256",
          "internalType": "uint256"
        }
      ],
      "outputs": [
        {
          "name": "",
          "type": "bool",
          "internalType": "bool"
        }
      ],
      "stateMutability": "nonpayable"
    },
    {
      "type": "function",
      "name": "transferFrom",
      "inputs": [
        {
          "name": "from",
          "type": "address",
          "internalType": "address"
        },
        {
          "name": "to",
          "type": "address",
          "internalType": "address"
        },
        {
          "name": "value",
          "type": "uint256",
          "internalType": "uint256"
        }
      ],
      "outputs": [
        {
          "name": "",
          "type": "bool",
          "internalType": "bool"
        }
      ],
      "stateMutability": "nonpayable"
    },
    {
      "type": "function",
      "name": "transferOwnership",
      "inputs": [
        {
          "name": "newOwner",
          "type": "address",
          "internalType": "address"
        }
      ],
      "outputs": [],
      "stateMutability": "nonpayable"
    },
    {
      "type": "function",
      "name": "updateMetadata",
      "inputs": [
        {
          "name": "newMetadataURI",
          "type": "string",
          "internalType": "string"
        }
      ],
      "outputs": [],
      "stateMutability": "nonpayable"
    },
    {
      "type": "event",
      "name": "Approval",
      "inputs": [
        {
          "name": "owner",
          "type": "address",
          "indexed": true,
          "internalType": "address"
        },
        {
          "name": "spender",
          "type": "address",
          "indexed": true,
          "internalType": "address"
        },
        {
          "name": "value",
          "type": "uint256",
          "indexed": false,
          "internalType": "uint256"
        }
      ],
      "anonymous": false
    },
    {
      "type": "event",
      "name": "Buy",
      "inputs": [
        {
          "name": "buyer",
          "type": "address",
          "indexed": true,
          "internalType": "address"
        },
        {
          "name": "amountETH",
          "type": "uint256",
          "indexed": false,
          "internalType": "uint256"
        },
        {
          "name": "amountToken",
          "type": "uint256",
          "indexed": false,
          "internalType": "uint256"
        }
      ],
      "anonymous": false
    },
    {
      "type": "event",
      "name": "MetadataUpdated",
      "inputs": [
        {
          "name": "newMetadataURI",
          "type": "string",
          "indexed": false,
          "internalType": "string"
        }
      ],
      "anonymous": false
    },
    {
      "type": "event",
      "name": "OwnershipTransferred",
      "inputs": [
        {
          "name": "previousOwner",
          "type": "address",
          "indexed": true,
          "internalType": "address"
        },
        {
          "name": "newOwner",
          "type": "address",
          "indexed": true,
          "internalType": "address"
        }
      ],
      "anonymous": false
    },
    {
      "type": "event",
      "name": "Sell",
      "inputs": [
        {
          "name": "seller",
          "type": "address",
          "indexed": true,
          "internalType": "address"
        },
        {
          "name": "amountETH",
          "type": "uint256",
          "indexed": false,
          "internalType": "uint256"
        },
        {
          "name": "amoumtToken",
          "type": "uint256",
          "indexed": false,
          "internalType": "uint256"
        }
      ],
      "anonymous": false
    },
    {
      "type": "event",
      "name": "Transfer",
      "inputs": [
        {
          "name": "from",
          "type": "address",
          "indexed": true,
          "internalType": "address"
        },
        {
          "name": "to",
          "type": "address",
          "indexed": true,
          "internalType": "address"
        },
        {
          "name": "value",
          "type": "uint256",
          "indexed": false,
          "internalType": "uint256"
        }
      ],
      "anonymous": false
    },
    {
      "type": "error",
      "name": "ERC20InsufficientAllowance",
      "inputs": [
        {
          "name": "spender",
          "type": "address",
          "internalType": "address"
        },
        {
          "name": "allowance",
          "type": "uint256",
          "internalType": "uint256"
        },
        {
          "name": "needed",
          "type": "uint256",
          "internalType": "uint256"
        }
      ]
    },
    {
      "type": "error",
      "name": "ERC20InsufficientBalance",
      "inputs": [
        {
          "name": "sender",
          "type": "address",
          "internalType": "address"
        },
        {
          "name": "balance",
          "type": "uint256",
          "internalType": "uint256"
        },
        {
          "name": "needed",
          "type": "uint256",
          "internalType": "uint256"
        }
      ]
    },
    {
      "type": "error",
      "name": "ERC20InvalidApprover",
      "inputs": [
        {
          "name": "approver",
          "type": "address",
          "internalType": "address"
        }
      ]
    },
    {
      "type": "error",
      "name": "ERC20InvalidReceiver",
      "inputs": [
        {
          "name": "receiver",
          "type": "address",
          "internalType": "address"
        }
      ]
    },
    {
      "type": "error",
      "name": "ERC20InvalidSender",
      "inputs": [
        {
          "name": "sender",
          "type": "address",
          "internalType": "address"
        }
      ]
    },
    {
      "type": "error",
      "name": "ERC20InvalidSpender",
      "inputs": [
        {
          "name": "spender",
          "type": "address",
          "internalType": "address"
        }
      ]
    },
    {
      "type": "error",
      "name": "OwnableInvalidOwner",
      "inputs": [
        {
          "name": "owner",
          "type": "address",
          "internalType": "address"
        }
      ]
    },
    {
      "type": "error",
      "name": "OwnableUnauthorizedAccount",
      "inputs": [
        {
          "name": "account",
          "type": "address",
          "internalType": "address"
        }
      ]
    }
  ],
  "bytecode": {
    "object": "0x608060405234801561000f575f5ffd5b506040516114b93803806114b983398101604081905261002e91610187565b338383600361003d838261029a565b50600461004a828261029a565b5050506001600160a01b03811661007a57604051631e4fbdf760e01b81525f600482015260240160405180910390fd5b61008381610099565b506008610090828261029a565b50505050610354565b600580546001600160a01b038381166001600160a01b0319831681179093556040519116919082907f8be0079c531659141344cd1fd0a4f28419497f9722a3daafe3b4186f6b6457e0905f90a35050565b634e487b7160e01b5f52604160045260245ffd5b5f82601f83011261010d575f5ffd5b81516001600160401b03811115610126576101266100ea565b604051601f8201601f19908116603f011681016001600160401b0381118282101715610154576101546100ea565b60405281815283820160200185101561016b575f5ffd5b8160208501602083015e5f918101602001919091529392505050565b5f5f5f60608486031215610199575f5ffd5b83516001600160401b038111156101ae575f5ffd5b6101ba868287016100fe565b602086015190945090506001600160401b038111156101d7575f5ffd5b6101e3868287016100fe565b604086015190935090506001600160401b03811115610200575f5ffd5b61020c868287016100fe565b9150509250925092565b600181811c9082168061022a57607f821691505b60208210810361024857634e487b7160e01b5f52602260045260245ffd5b50919050565b601f82111561029557805f5260205f20601f840160051c810160208510156102735750805b601f840160051c820191505b81811015610292575f815560010161027f565b50505b505050565b81516001600160401b038111156102b3576102b36100ea565b6102c7816102c18454610216565b8461024e565b6020601f8211600181146102f9575f83156102e25750848201515b5f19600385901b1c1916600184901b178455610292565b5f84815260208120601f198516915b828110156103285787850151825560209485019460019092019101610308565b508482101561034557868401515f19600387901b60f8161c191681555b50505050600190811b01905550565b611158806103615f395ff3fe60806040526004361061011e575f3560e01c80638da5cb5b1161009d578063a9059cbb11610062578063a9059cbb146102ec578063dd62ed3e1461030b578063e4849b321461034f578063eb91d37e1461036e578063f2fde38b14610382575f5ffd5b80638da5cb5b1461026b578063918b5be11461029257806393d5825e146102b157806395d89b41146102d0578063a6f2ae3a146102e4575f5ffd5b80631ca8b6cb116100e35780631ca8b6cb146101d357806323b872dd146101e8578063313ce5671461020757806370a0823114610221578063715018a614610255575f5ffd5b806303ee438c1461012957806306fdde0314610153578063095ea7b31461016757806318160ddd146101965780631b3d36de146101b4575f5ffd5b3661012557005b5f5ffd5b348015610134575f5ffd5b5061013d6103a1565b60405161014a9190610d9a565b60405180910390f35b34801561015e575f5ffd5b5061013d61042d565b348015610172575f5ffd5b50610186610181366004610dea565b6104bd565b604051901515815260200161014a565b3480156101a1575f5ffd5b506002545b60405190815260200161014a565b3480156101bf575f5ffd5b506101a66101ce366004610e12565b6104d6565b3480156101de575f5ffd5b506101a660095481565b3480156101f3575f5ffd5b50610186610202366004610e29565b610531565b348015610212575f5ffd5b506040515f815260200161014a565b34801561022c575f5ffd5b506101a661023b366004610e63565b6001600160a01b03165f9081526020819052604090205490565b348015610260575f5ffd5b50610269610554565b005b348015610276575f5ffd5b506005546040516001600160a01b03909116815260200161014a565b34801561029d575f5ffd5b506102696102ac366004610e90565b610567565b3480156102bc575f5ffd5b506101a66102cb366004610e12565b6105b6565b3480156102db575f5ffd5b5061013d6105fa565b610269610609565b3480156102f7575f5ffd5b50610186610306366004610dea565b61079a565b348015610316575f5ffd5b506101a6610325366004610f43565b6001600160a01b039182165f90815260016020908152604080832093909416825291909152205490565b34801561035a575f5ffd5b50610269610369366004610e12565b6107a7565b348015610379575f5ffd5b506101a6610925565b34801561038d575f5ffd5b5061026961039c366004610e63565b61093a565b600880546103ae90610f74565b80601f01602080910402602001604051908101604052809291908181526020018280546103da90610f74565b80156104255780601f106103fc57610100808354040283529160200191610425565b820191905f5260205f20905b81548152906001019060200180831161040857829003601f168201915b505050505081565b60606003805461043c90610f74565b80601f016020809104026020016040519081016040528092919081815260200182805461046890610f74565b80156104b35780601f1061048a576101008083540402835291602001916104b3565b820191905f5260205f20905b81548152906001019060200180831161049657829003601f168201915b5050505050905090565b5f336104ca818585610977565b60019150505b92915050565b5f5f6104e0610925565b90505f6104ee846002610fc0565b6104f88380610fc0565b6105029190610fd7565b90505f61050e82610989565b90505f600161051d8584610fea565b6105279190610ffd565b9695505050505050565b5f3361053e8582856109df565b610549858585610a5b565b506001949350505050565b61055c610ab8565b6105655f610ae5565b565b61056f610ab8565b600861057b8282611067565b507f1c306e70c05992619e2128ad1ef88df75f36c9476282e59f51401b2abaa42e4e816040516105ab9190610d9a565b60405180910390a150565b6009545f90816002846105c98483610fc0565b6105d39190610fea565b6105de906001610fd7565b6105e89086610fc0565b6105f29190610ffd565b949350505050565b60606004805461043c90610f74565b5f610613346104d6565b90505f811161065f5760405162461bcd60e51b8152602060048201526013602482015272105b5bdd5b9d081a5cc81d1bdbc81cdb585b1b606a1b60448201526064015b60405180910390fd5b5f6009548261066e9190610fd7565b90505f6002836001600954856106849190610fd7565b61068e9190610fea565b6106989190610fc0565b6106a29190610ffd565b90506106ae3384610b36565b8260095f8282546106bf9190610fd7565b909155505034811015610759575f336106d88334610fea565b6040515f81818185875af1925050503d805f8114610711576040519150601f19603f3d011682016040523d82523d5f602084013e610716565b606091505b50509050806107575760405162461bcd60e51b815260206004820152600d60248201526c1499599d5b990819985a5b1959609a1b6044820152606401610656565b505b604080513481526020810185905233917f1cbc5ab135991bd2b6a4b034a04aa2aa086dac1371cb9b16b8b5e2ed6b036bed91015b60405180910390a2505050565b5f336104ca818585610a5b565b5f81116107e95760405162461bcd60e51b815260206004820152601060248201526f105b5bdd5b9d081d1bdbc81cdb585b1b60821b6044820152606401610656565b5f6107f3826105b6565b9050804710156108455760405162461bcd60e51b815260206004820152601e60248201527f4e6f7420656e6f7567682062616c616e636520696e20636f6e747261637400006044820152606401610656565b8160095f8282546108569190610fea565b9091555061086690503383610b6e565b6040515f90339083908381818185875af1925050503d805f81146108a5576040519150601f19603f3d011682016040523d82523d5f602084013e6108aa565b606091505b50509050806108ed5760405162461bcd60e51b815260206004820152600f60248201526e151c985b9cd9995c8819985a5b1959608a1b6044820152606401610656565b604080518481526020810184905233917fed7a144fad14804d5c249145e3e0e2b63a9eb455b76aee5bc92d711e9bba3e4a910161078d565b5f60016009546109359190610fd7565b905090565b610942610ab8565b6001600160a01b03811661096b57604051631e4fbdf760e01b81525f6004820152602401610656565b61097481610ae5565b50565b6109848383836001610ba2565b505050565b5f806002610998846001610fd7565b6109a29190610ffd565b9050825b808210156109d85750806002816109bd8187610ffd565b6109c79190610fd7565b6109d19190610ffd565b91506109a6565b9392505050565b6001600160a01b038381165f908152600160209081526040808320938616835292905220545f19811015610a555781811015610a4757604051637dc7a0d960e11b81526001600160a01b03841660048201526024810182905260448101839052606401610656565b610a5584848484035f610ba2565b50505050565b6001600160a01b038316610a8457604051634b637e8f60e11b81525f6004820152602401610656565b6001600160a01b038216610aad5760405163ec442f0560e01b81525f6004820152602401610656565b610984838383610c74565b6005546001600160a01b031633146105655760405163118cdaa760e01b8152336004820152602401610656565b600580546001600160a01b038381166001600160a01b0319831681179093556040519116919082907f8be0079c531659141344cd1fd0a4f28419497f9722a3daafe3b4186f6b6457e0905f90a35050565b6001600160a01b038216610b5f5760405163ec442f0560e01b81525f6004820152602401610656565b610b6a5f8383610c74565b5050565b6001600160a01b038216610b9757604051634b637e8f60e11b81525f6004820152602401610656565b610b6a825f83610c74565b6001600160a01b038416610bcb5760405163e602df0560e01b81525f6004820152602401610656565b6001600160a01b038316610bf457604051634a1406b160e11b81525f6004820152602401610656565b6001600160a01b038085165f9081526001602090815260408083209387168352929052208290558015610a5557826001600160a01b0316846001600160a01b03167f8c5be1e5ebec7d5bd14f71427d1e84f3dd0314c0f7b2291e5b200ac8c7c3b92584604051610c6691815260200190565b60405180910390a350505050565b6001600160a01b038316610c9e578060025f828254610c939190610fd7565b90915550610d0e9050565b6001600160a01b0383165f9081526020819052604090205481811015610cf05760405163391434e360e21b81526001600160a01b03851660048201526024810182905260448101839052606401610656565b6001600160a01b0384165f9081526020819052604090209082900390555b6001600160a01b038216610d2a57600280548290039055610d48565b6001600160a01b0382165f9081526020819052604090208054820190555b816001600160a01b0316836001600160a01b03167fddf252ad1be2c89b69c2b068fc378daa952ba7f163c4a11628f55a4df523b3ef83604051610d8d91815260200190565b60405180910390a3505050565b602081525f82518060208401528060208501604085015e5f604082850101526040601f19601f83011684010191505092915050565b80356001600160a01b0381168114610de5575f5ffd5b919050565b5f5f60408385031215610dfb575f5ffd5b610e0483610dcf565b946020939093013593505050565b5f60208284031215610e22575f5ffd5b5035919050565b5f5f5f60608486031215610e3b575f5ffd5b610e4484610dcf565b9250610e5260208501610dcf565b929592945050506040919091013590565b5f60208284031215610e73575f5ffd5b6109d882610dcf565b634e487b7160e01b5f52604160045260245ffd5b5f60208284031215610ea0575f5ffd5b813567ffffffffffffffff811115610eb6575f5ffd5b8201601f81018413610ec6575f5ffd5b803567ffffffffffffffff811115610ee057610ee0610e7c565b604051601f8201601f19908116603f0116810167ffffffffffffffff81118282101715610f0f57610f0f610e7c565b604052818152828201602001861015610f26575f5ffd5b816020840160208301375f91810160200191909152949350505050565b5f5f60408385031215610f54575f5ffd5b610f5d83610dcf565b9150610f6b60208401610dcf565b90509250929050565b600181811c90821680610f8857607f821691505b602082108103610fa657634e487b7160e01b5f52602260045260245ffd5b50919050565b634e487b7160e01b5f52601160045260245ffd5b80820281158282048414176104d0576104d0610fac565b808201808211156104d0576104d0610fac565b818103818111156104d0576104d0610fac565b5f8261101757634e487b7160e01b5f52601260045260245ffd5b500490565b601f82111561098457805f5260205f20601f840160051c810160208510156110415750805b601f840160051c820191505b81811015611060575f815560010161104d565b5050505050565b815167ffffffffffffffff81111561108157611081610e7c565b6110958161108f8454610f74565b8461101c565b6020601f8211600181146110c7575f83156110b05750848201515b5f19600385901b1c1916600184901b178455611060565b5f84815260208120601f198516915b828110156110f657878501518255602094850194600190920191016110d6565b508482101561111357868401515f19600387901b60f8161c191681555b50505050600190811b0190555056fea264697066735822122078f6cfbf9988a79a90267873abcb6eb8a17a7b29d1e5bb50bd150d49288305dd64736f6c634300081c0033",
    "linkReferences": {}
  },
  "methodIdentifiers": {
    "allowance(address,address)": "dd62ed3e",
    "approve(address,uint256)": "095ea7b3",
    "balanceOf(address)": "70a08231",
    "buy()": "a6f2ae3a",
    "calculateToken(uint256)": "1b3d36de",
    "calculateTokenSell(uint256)": "93d5825e",
    "decimals()": "313ce567",
    "getCurrentPrice()": "eb91d37e",
    "metadataURI()": "03ee438c",
    "name()": "06fdde03",
    "owner()": "8da5cb5b",
    "renounceOwnership()": "715018a6",
    "sell(uint256)": "e4849b32",
    "symbol()": "95d89b41",
    "totalSupply()": "18160ddd",
    "totalTokenSupply()": "1ca8b6cb",
    "transfer(address,uint256)": "a9059cbb",
    "transferFrom(address,address,uint256)": "23b872dd",
    "transferOwnership(address)": "f2fde38b",
    "updateMetadata(string)": "918b5be1"
  },
  "id": 0
}