{"abi":[{"type":"constructor","inputs":[{"name":"name_","type":"string","internalType":"string"},{"name":"symbol_","type":"string","internalType":"string"},{"name":"metadataURI_","type":"string","internalType":"string"},{"name":"initialPrice_","type":"uint256","internalType":"uint256"},{"name":"owner","type":"address","internalType":"address"}],"stateMutability":"nonpayable"},{"type":"receive","stateMutability":"payable"},{"type":"function","name":"allowance","inputs":[{"name":"owner","type":"address","internalType":"address"},{"name":"spender","type":"address","internalType":"address"}],"outputs":[{"name":"","type":"uint256","internalType":"uint256"}],"stateMutability":"view"},{"type":"function","name":"approve","inputs":[{"name":"spender","type":"address","internalType":"address"},{"name":"value","type":"uint256","internalType":"uint256"}],"outputs":[{"name":"","type":"bool","internalType":"bool"}],"stateMutability":"nonpayable"},{"type":"function","name":"balanceOf","inputs":[{"name":"account","type":"address","internalType":"address"}],"outputs":[{"name":"","type":"uint256","internalType":"uint256"}],"stateMutability":"view"},{"type":"function","name":"buy","inputs":[],"outputs":[],"stateMutability":"payable"},{"type":"function","name":"calculateToken","inputs":[{"name":"amount","type":"uint256","internalType":"uint256"}],"outputs":[{"name":"","type":"uint256","internalType":"uint256"}],"stateMutability":"view"},{"type":"function","name":"calculateTokenSell","inputs":[{"name":"amount","type":"uint256","internalType":"uint256"}],"outputs":[{"name":"","type":"uint256","internalType":"uint256"}],"stateMutability":"view"},{"type":"function","name":"decimals","inputs":[],"outputs":[{"name":"","type":"uint8","internalType":"uint8"}],"stateMutability":"pure"},{"type":"function","name":"feePercentage","inputs":[],"outputs":[{"name":"","type":"uint256","internalType":"uint256"}],"stateMutability":"view"},{"type":"function","name":"feeRecipient","inputs":[],"outputs":[{"name":"","type":"address","internalType":"address"}],"stateMutability":"view"},{"type":"function","name":"getContractBalance","inputs":[],"outputs":[{"name":"","type":"uint256","internalType":"uint256"}],"stateMutability":"view"},{"type":"function","name":"getCurrentPrice","inputs":[],"outputs":[{"name":"","type":"uint256","internalType":"uint256"}],"stateMutability":"view"},{"type":"function","name":"getTransactions","inputs":[],"outputs":[{"name":"","type":"bytes32[]","internalType":"bytes32[]"}],"stateMutability":"view"},{"type":"function","name":"logTransaction","inputs":[{"name":"transaction","type":"bytes32","internalType":"bytes32"}],"outputs":[],"stateMutability":"nonpayable"},{"type":"function","name":"metadataURI","inputs":[],"outputs":[{"name":"","type":"string","internalType":"string"}],"stateMutability":"view"},{"type":"function","name":"name","inputs":[],"outputs":[{"name":"","type":"string","internalType":"string"}],"stateMutability":"view"},{"type":"function","name":"owner","inputs":[],"outputs":[{"name":"","type":"address","internalType":"address"}],"stateMutability":"view"},{"type":"function","name":"renounceOwnership","inputs":[],"outputs":[],"stateMutability":"nonpayable"},{"type":"function","name":"sell","inputs":[{"name":"amount","type":"uint256","internalType":"uint256"}],"outputs":[],"stateMutability":"nonpayable"},{"type":"function","name":"setFeeRecipient","inputs":[{"name":"newRecipient","type":"address","internalType":"address"}],"outputs":[],"stateMutability":"nonpayable"},{"type":"function","name":"symbol","inputs":[],"outputs":[{"name":"","type":"string","internalType":"string"}],"stateMutability":"view"},{"type":"function","name":"totalSupply","inputs":[],"outputs":[{"name":"","type":"uint256","internalType":"uint256"}],"stateMutability":"view"},{"type":"function","name":"transactions","inputs":[{"name":"","type":"uint256","internalType":"uint256"}],"outputs":[{"name":"","type":"bytes32","internalType":"bytes32"}],"stateMutability":"view"},{"type":"function","name":"transfer","inputs":[{"name":"to","type":"address","internalType":"address"},{"name":"value","type":"uint256","internalType":"uint256"}],"outputs":[{"name":"","type":"bool","internalType":"bool"}],"stateMutability":"nonpayable"},{"type":"function","name":"transferFrom","inputs":[{"name":"from","type":"address","internalType":"address"},{"name":"to","type":"address","internalType":"address"},{"name":"value","type":"uint256","internalType":"uint256"}],"outputs":[{"name":"","type":"bool","internalType":"bool"}],"stateMutability":"nonpayable"},{"type":"function","name":"transferOwnership","inputs":[{"name":"newOwner","type":"address","internalType":"address"}],"outputs":[],"stateMutability":"nonpayable"},{"type":"function","name":"updateMetadata","inputs":[{"name":"newMetadataURI","type":"string","internalType":"string"}],"outputs":[],"stateMutability":"nonpayable"},{"type":"event","name":"Approval","inputs":[{"name":"owner","type":"address","indexed":true,"internalType":"address"},{"name":"spender","type":"address","indexed":true,"internalType":"address"},{"name":"value","type":"uint256","indexed":false,"internalType":"uint256"}],"anonymous":false},{"type":"event","name":"Buy","inputs":[{"name":"buyer","type":"address","indexed":true,"internalType":"address"},{"name":"amountETH","type":"uint256","indexed":false,"internalType":"uint256"},{"name":"amountToken","type":"uint256","indexed":false,"internalType":"uint256"},{"name":"price","type":"uint256","indexed":false,"internalType":"uint256"}],"anonymous":false},{"type":"event","name":"MetadataUpdated","inputs":[{"name":"newMetadataURI","type":"string","indexed":false,"internalType":"string"}],"anonymous":false},{"type":"event","name":"OwnershipTransferred","inputs":[{"name":"previousOwner","type":"address","indexed":true,"internalType":"address"},{"name":"newOwner","type":"address","indexed":true,"internalType":"address"}],"anonymous":false},{"type":"event","name":"Sell","inputs":[{"name":"seller","type":"address","indexed":true,"internalType":"address"},{"name":"amountETH","type":"uint256","indexed":false,"internalType":"uint256"},{"name":"amoumtToken","type":"uint256","indexed":false,"internalType":"uint256"},{"name":"price","type":"uint256","indexed":false,"internalType":"uint256"}],"anonymous":false},{"type":"event","name":"Transfer","inputs":[{"name":"from","type":"address","indexed":true,"internalType":"address"},{"name":"to","type":"address","indexed":true,"internalType":"address"},{"name":"value","type":"uint256","indexed":false,"internalType":"uint256"}],"anonymous":false},{"type":"error","name":"ERC20InsufficientAllowance","inputs":[{"name":"spender","type":"address","internalType":"address"},{"name":"allowance","type":"uint256","internalType":"uint256"},{"name":"needed","type":"uint256","internalType":"uint256"}]},{"type":"error","name":"ERC20InsufficientBalance","inputs":[{"name":"sender","type":"address","internalType":"address"},{"name":"balance","type":"uint256","internalType":"uint256"},{"name":"needed","type":"uint256","internalType":"uint256"}]},{"type":"error","name":"ERC20InvalidApprover","inputs":[{"name":"approver","type":"address","internalType":"address"}]},{"type":"error","name":"ERC20InvalidReceiver","inputs":[{"name":"receiver","type":"address","internalType":"address"}]},{"type":"error","name":"ERC20InvalidSender","inputs":[{"name":"sender","type":"address","internalType":"address"}]},{"type":"error","name":"ERC20InvalidSpender","inputs":[{"name":"spender","type":"address","internalType":"address"}]},{"type":"error","name":"OwnableInvalidOwner","inputs":[{"name":"owner","type":"address","internalType":"address"}]},{"type":"error","name":"OwnableUnauthorizedAccount","inputs":[{"name":"account","type":"address","internalType":"address"}]}],"bytecode":{"object":"0x608060405260016009556002600a55348015610019575f5ffd5b50604051611a39380380611a39833981016040819052610038916101b8565b808585600361004783826102f6565b50600461005482826102f6565b5050506001600160a01b03811661008457604051631e4fbdf760e01b81525f600482015260240160405180910390fd5b61008d816100ca565b506009829055600861009f84826102f6565b50600b80546001600160a01b0319166001600160a01b0392909216919091179055506103b092505050565b600580546001600160a01b038381166001600160a01b0319831681179093556040519116919082907f8be0079c531659141344cd1fd0a4f28419497f9722a3daafe3b4186f6b6457e0905f90a35050565b634e487b7160e01b5f52604160045260245ffd5b5f82601f83011261013e575f5ffd5b81516001600160401b038111156101575761015761011b565b604051601f8201601f19908116603f011681016001600160401b03811182821017156101855761018561011b565b60405281815283820160200185101561019c575f5ffd5b8160208501602083015e5f918101602001919091529392505050565b5f5f5f5f5f60a086880312156101cc575f5ffd5b85516001600160401b038111156101e1575f5ffd5b6101ed8882890161012f565b602088015190965090506001600160401b0381111561020a575f5ffd5b6102168882890161012f565b604088015190955090506001600160401b03811115610233575f5ffd5b61023f8882890161012f565b60608801516080890151919550935090506001600160a01b0381168114610264575f5ffd5b809150509295509295909350565b600181811c9082168061028657607f821691505b6020821081036102a457634e487b7160e01b5f52602260045260245ffd5b50919050565b601f8211156102f157805f5260205f20601f840160051c810160208510156102cf5750805b601f840160051c820191505b818110156102ee575f81556001016102db565b50505b505050565b81516001600160401b0381111561030f5761030f61011b565b6103238161031d8454610272565b846102aa565b6020601f821160018114610355575f831561033e5750848201515b5f19600385901b1c1916600184901b1784556102ee565b5f84815260208120601f198516915b828110156103845787850151825560209485019460019092019101610364565b50848210156103a157868401515f19600387901b60f8161c191681555b50505050600190811b01905550565b61167c806103bd5f395ff3fe60806040526004361061017e575f3560e01c80638da5cb5b116100cd578063a6f2ae3a11610087578063e4849b3211610062578063e4849b321461047d578063e74b981b1461049c578063eb91d37e146104bb578063f2fde38b146104cf575f5ffd5b8063a6f2ae3a14610412578063a9059cbb1461041a578063dd62ed3e14610439575f5ffd5b80638da5cb5b1461036f578063918b5be11461038c57806393d5825e146103ab57806395d89b41146103ca5780639ace38c2146103de578063a001ecdd146103fd575f5ffd5b806325640850116101385780636f9fb98a116101135780636f9fb98a146102f457806370a0823114610306578063715018a61461033a57806383920e901461034e575f5ffd5b80632564085014610252578063313ce567146102a257806346904840146102bd575f5ffd5b806303ee438c1461018957806306fdde03146101b3578063095ea7b3146101c757806318160ddd146101f65780631b3d36de1461021457806323b872dd14610233575f5ffd5b3661018557005b5f5ffd5b348015610194575f5ffd5b5061019d6104ee565b6040516101aa919061127e565b60405180910390f35b3480156101be575f5ffd5b5061019d61057a565b3480156101d2575f5ffd5b506101e66101e13660046112ab565b61060a565b60405190151581526020016101aa565b348015610201575f5ffd5b506002545b6040519081526020016101aa565b34801561021f575f5ffd5b5061020661022e3660046112d3565b610623565b34801561023e575f5ffd5b506101e661024d3660046112ea565b61077a565b34801561025d575f5ffd5b506102a061026c3660046112d3565b600c80546001810182555f919091527fdf6966c971051c3d54ec59162606531493a51404a002842f56009d7e5cf4a8c70155565b005b3480156102ad575f5ffd5b50604051600581526020016101aa565b3480156102c8575f5ffd5b50600b546102dc906001600160a01b031681565b6040516001600160a01b0390911681526020016101aa565b3480156102ff575f5ffd5b5047610206565b348015610311575f5ffd5b50610206610320366004611324565b6001600160a01b03165f9081526020819052604090205490565b348015610345575f5ffd5b506102a061079d565b348015610359575f5ffd5b506103626107b0565b6040516101aa919061133d565b34801561037a575f5ffd5b506005546001600160a01b03166102dc565b348015610397575f5ffd5b506102a06103a6366004611393565b610805565b3480156103b6575f5ffd5b506102066103c53660046112d3565b610854565b3480156103d5575f5ffd5b5061019d6108a0565b3480156103e9575f5ffd5b506102066103f83660046112d3565b6108af565b348015610408575f5ffd5b50610206600a5481565b6102a06108ce565b348015610425575f5ffd5b506101e66104343660046112ab565b610aab565b348015610444575f5ffd5b50610206610453366004611446565b6001600160a01b039182165f90815260016020908152604080832093909416825291909152205490565b348015610488575f5ffd5b506102a06104973660046112d3565b610ab8565b3480156104a7575f5ffd5b506102a06104b6366004611324565b610cf8565b3480156104c6575f5ffd5b50610206610d6c565b3480156104da575f5ffd5b506102a06104e9366004611324565b610d88565b600880546104fb90611477565b80601f016020809104026020016040519081016040528092919081815260200182805461052790611477565b80156105725780601f1061054957610100808354040283529160200191610572565b820191905f5260205f20905b81548152906001019060200180831161055557829003601f168201915b505050505081565b60606003805461058990611477565b80601f01602080910402602001604051908101604052809291908181526020018280546105b590611477565b80156106005780601f106105d757610100808354040283529160200191610600565b820191905f5260205f20905b8154815290600101906020018083116105e357829003601f168201915b5050505050905090565b5f33610617818585610dc5565b60019150505b92915050565b5f5f82116106785760405162461bcd60e51b815260206004820152601d60248201527f416d6f756e74206d7573742062652067726561746572207468616e203000000060448201526064015b60405180910390fd5b5f610681610d6c565b90505f61068f8460026114c3565b61069983806114c3565b6106a391906114da565b90506106af82806114c3565b8110156106ef5760405162461bcd60e51b815260206004820152600e60248201526d125b9d985b1a5908185b5bdd5b9d60921b604482015260640161066f565b5f6106f982610dd7565b90505f600161070885846114ed565b6107129190611500565b90505f81116107715760405162461bcd60e51b815260206004820152602560248201527f416d6f756e7420697320746f6f20736d616c6c20746f206d696e7420616e79206044820152643a37b5b2b760d91b606482015260840161066f565b95945050505050565b5f33610787858285610e2d565b610792858585610ea9565b506001949350505050565b6107a5610f06565b6107ae5f610f33565b565b6060600c80548060200260200160405190810160405280929190818152602001828054801561060057602002820191905f5260205f20905b8154815260200190600101908083116107e8575050505050905090565b61080d610f06565b6008610819828261156a565b507f1c306e70c05992619e2128ad1ef88df75f36c9476282e59f51401b2abaa42e4e81604051610849919061127e565b60405180910390a150565b5f5f61085e610d6c565b90505f600260018561087085846114c3565b61087a91906114ed565b61088491906114ed565b61088e90866114c3565b6108989190611500565b949350505050565b60606004805461058990611477565b600c81815481106108be575f80fd5b5f91825260209091200154905081565b5f6108d834610623565b90505f811161091f5760405162461bcd60e51b8152602060048201526013602482015272105b5bdd5b9d081a5cc81d1bdbc81cdb585b1b606a1b604482015260640161066f565b5f610928610d6c565b90505f61093582846114da565b90505f600284600161094786866114da565b61095191906114ed565b61095b91906114c3565b6109659190611500565b905061098f60405180604001604052806006815260200165283934b1b29d60d11b81525082610f84565b6109bc6040518060400160405280600b81526020016a03a37b5b2b710313abc9d160ad1b81525085610f84565b6109c63385610fcd565b80341115610a5b575f336109da83346114ed565b6040515f81818185875af1925050503d805f8114610a13576040519150601f19603f3d011682016040523d82523d5f602084013e610a18565b606091505b5050905080610a595760405162461bcd60e51b815260206004820152600d60248201526c1499599d5b990819985a5b1959609a1b604482015260640161066f565b505b337fbeae048c6d270d9469f86cf6e8fedda3c60ad770f16c24c9fc131c8e9a09101d3486610a87610d6c565b6040805193845260208401929092529082015260600160405180910390a250505050565b5f33610617818585610ea9565b5f8111610afa5760405162461bcd60e51b815260206004820152601060248201526f105b5bdd5b9d081d1bdbc81cdb585b1b60821b604482015260640161066f565b6002548110610b3f5760405162461bcd60e51b8152602060048201526011602482015270416d6f756e7420697320746f6f2062696760781b604482015260640161066f565b5f610b4982610854565b90505f6064600a5483610b5c91906114c3565b610b669190611500565b90505f610b7382846114ed565b9050610b9d604051806040016040528060068152602001652b30b63ab29d60d11b81525084610f84565b610bc660405180604001604052806007815260200166213630b731b29d60c91b81525047610f84565b80471015610c165760405162461bcd60e51b815260206004820152601e60248201527f4e6f7420656e6f7567682062616c616e636520696e20636f6e74726163740000604482015260640161066f565b610c203385611001565b6040515f90339083908381818185875af1925050503d805f8114610c5f576040519150601f19603f3d011682016040523d82523d5f602084013e610c64565b606091505b5050905080610ca75760405162461bcd60e51b815260206004820152600f60248201526e151c985b9cd9995c8819985a5b1959608a1b604482015260640161066f565b337f846c37eef631e0943682d87352ec117c20008eb7f425c9b85ac011a6d4774cc08684610cd3610d6c565b6040805193845260208401929092529082015260600160405180910390a25050505050565b610d00610f06565b6001600160a01b038116610d4a5760405162461bcd60e51b8152602060048201526011602482015270125b9d985b1a59081c9958da5c1a595b9d607a1b604482015260640161066f565b600b80546001600160a01b0319166001600160a01b0392909216919091179055565b5f600954610d7960025490565b610d8391906114da565b905090565b610d90610f06565b6001600160a01b038116610db957604051631e4fbdf760e01b81525f600482015260240161066f565b610dc281610f33565b50565b610dd28383836001611035565b505050565b5f806002610de68460016114da565b610df09190611500565b9050825b80821015610e26575080600281610e0b8187611500565b610e1591906114da565b610e1f9190611500565b9150610df4565b9392505050565b6001600160a01b038381165f908152600160209081526040808320938616835292905220545f19811015610ea35781811015610e9557604051637dc7a0d960e11b81526001600160a01b0384166004820152602481018290526044810183905260640161066f565b610ea384848484035f611035565b50505050565b6001600160a01b038316610ed257604051634b637e8f60e11b81525f600482015260240161066f565b6001600160a01b038216610efb5760405163ec442f0560e01b81525f600482015260240161066f565b610dd2838383611107565b6005546001600160a01b031633146107ae5760405163118cdaa760e01b815233600482015260240161066f565b600580546001600160a01b038381166001600160a01b0319831681179093556040519116919082907f8be0079c531659141344cd1fd0a4f28419497f9722a3daafe3b4186f6b6457e0905f90a35050565b610fc98282604051602401610f9a929190611625565b60408051601f198184030181529190526020810180516001600160e01b0316632d839cb360e21b17905261122d565b5050565b6001600160a01b038216610ff65760405163ec442f0560e01b81525f600482015260240161066f565b610fc95f8383611107565b6001600160a01b03821661102a57604051634b637e8f60e11b81525f600482015260240161066f565b610fc9825f83611107565b6001600160a01b03841661105e5760405163e602df0560e01b81525f600482015260240161066f565b6001600160a01b03831661108757604051634a1406b160e11b81525f600482015260240161066f565b6001600160a01b038085165f9081526001602090815260408083209387168352929052208290558015610ea357826001600160a01b0316846001600160a01b03167f8c5be1e5ebec7d5bd14f71427d1e84f3dd0314c0f7b2291e5b200ac8c7c3b925846040516110f991815260200190565b60405180910390a350505050565b6001600160a01b038316611131578060025f82825461112691906114da565b909155506111a19050565b6001600160a01b0383165f90815260208190526040902054818110156111835760405163391434e360e21b81526001600160a01b0385166004820152602481018290526044810183905260640161066f565b6001600160a01b0384165f9081526020819052604090209082900390555b6001600160a01b0382166111bd576002805482900390556111db565b6001600160a01b0382165f9081526020819052604090208054820190555b816001600160a01b0316836001600160a01b03167fddf252ad1be2c89b69c2b068fc378daa952ba7f163c4a11628f55a4df523b3ef8360405161122091815260200190565b60405180910390a3505050565b610dc2815f6a636f6e736f6c652e6c6f6790505f5f835160208501845afa505050565b5f81518084528060208401602086015e5f602082860101526020601f19601f83011685010191505092915050565b602081525f610e266020830184611250565b80356001600160a01b03811681146112a6575f5ffd5b919050565b5f5f604083850312156112bc575f5ffd5b6112c583611290565b946020939093013593505050565b5f602082840312156112e3575f5ffd5b5035919050565b5f5f5f606084860312156112fc575f5ffd5b61130584611290565b925061131360208501611290565b929592945050506040919091013590565b5f60208284031215611334575f5ffd5b610e2682611290565b602080825282518282018190525f918401906040840190835b81811015611374578351835260209384019390920191600101611356565b509095945050505050565b634e487b7160e01b5f52604160045260245ffd5b5f602082840312156113a3575f5ffd5b813567ffffffffffffffff8111156113b9575f5ffd5b8201601f810184136113c9575f5ffd5b803567ffffffffffffffff8111156113e3576113e361137f565b604051601f8201601f19908116603f0116810167ffffffffffffffff811182821017156114125761141261137f565b604052818152828201602001861015611429575f5ffd5b816020840160208301375f91810160200191909152949350505050565b5f5f60408385031215611457575f5ffd5b61146083611290565b915061146e60208401611290565b90509250929050565b600181811c9082168061148b57607f821691505b6020821081036114a957634e487b7160e01b5f52602260045260245ffd5b50919050565b634e487b7160e01b5f52601160045260245ffd5b808202811582820484141761061d5761061d6114af565b8082018082111561061d5761061d6114af565b8181038181111561061d5761061d6114af565b5f8261151a57634e487b7160e01b5f52601260045260245ffd5b500490565b601f821115610dd257805f5260205f20601f840160051c810160208510156115445750805b601f840160051c820191505b81811015611563575f8155600101611550565b5050505050565b815167ffffffffffffffff8111156115845761158461137f565b611598816115928454611477565b8461151f565b6020601f8211600181146115ca575f83156115b35750848201515b5f19600385901b1c1916600184901b178455611563565b5f84815260208120601f198516915b828110156115f957878501518255602094850194600190920191016115d9565b508482101561161657868401515f19600387901b60f8161c191681555b50505050600190811b01905550565b604081525f6116376040830185611250565b9050826020830152939250505056fea2646970667358221220350cfb54deee8b97536198f13f5c7b5e116d8ea8bcd3b65312286e0d5ae7ec9d64736f6c634300081c0033","linkReferences":{}},"methodIdentifiers":{"allowance(address,address)":"dd62ed3e","approve(address,uint256)":"095ea7b3","balanceOf(address)":"70a08231","buy()":"a6f2ae3a","calculateToken(uint256)":"1b3d36de","calculateTokenSell(uint256)":"93d5825e","decimals()":"313ce567","feePercentage()":"a001ecdd","feeRecipient()":"46904840","getContractBalance()":"6f9fb98a","getCurrentPrice()":"eb91d37e","getTransactions()":"83920e90","logTransaction(bytes32)":"25640850","metadataURI()":"03ee438c","name()":"06fdde03","owner()":"8da5cb5b","renounceOwnership()":"715018a6","sell(uint256)":"e4849b32","setFeeRecipient(address)":"e74b981b","symbol()":"95d89b41","totalSupply()":"18160ddd","transactions(uint256)":"9ace38c2","transfer(address,uint256)":"a9059cbb","transferFrom(address,address,uint256)":"23b872dd","transferOwnership(address)":"f2fde38b","updateMetadata(string)":"918b5be1"},"id":1}